{
  "contractName": "Ledger",
  "abi": [
    {
      "constant": true,
      "inputs": [],
      "name": "initialBalance",
      "outputs": [
        {
          "name": "",
          "type": "uint256"
        }
      ],
      "payable": false,
      "stateMutability": "view",
      "type": "function"
    },
    {
      "constant": false,
      "inputs": [],
      "name": "increaseInitialBalance",
      "outputs": [],
      "payable": true,
      "stateMutability": "payable",
      "type": "function"
    },
    {
      "constant": true,
      "inputs": [
        {
          "name": "",
          "type": "uint256"
        }
      ],
      "name": "ledgerAccounts",
      "outputs": [
        {
          "name": "",
          "type": "address"
        }
      ],
      "payable": false,
      "stateMutability": "view",
      "type": "function"
    },
    {
      "constant": true,
      "inputs": [],
      "name": "owner",
      "outputs": [
        {
          "name": "",
          "type": "address"
        }
      ],
      "payable": false,
      "stateMutability": "view",
      "type": "function"
    },
    {
      "constant": true,
      "inputs": [
        {
          "name": "",
          "type": "address"
        }
      ],
      "name": "ledger",
      "outputs": [
        {
          "name": "",
          "type": "uint256"
        }
      ],
      "payable": false,
      "stateMutability": "view",
      "type": "function"
    },
    {
      "inputs": [],
      "payable": false,
      "stateMutability": "nonpayable",
      "type": "constructor"
    },
    {
      "anonymous": false,
      "inputs": [],
      "name": "InitialBalanceChanged",
      "type": "event"
    }
  ],
  "bytecode": "0x6060604052341561000f57600080fd5b33600360006101000a81548173ffffffffffffffffffffffffffffffffffffffff021916908373ffffffffffffffffffffffffffffffffffffffff1602179055506102fd8061005f6000396000f30060606040526004361061006d576000357c0100000000000000000000000000000000000000000000000000000000900463ffffffff16806318369a2a146100725780631b80a2b61461009b5780635fa97592146100a55780638da5cb5b14610108578063fbfa941f1461015d575b600080fd5b341561007d57600080fd5b6100856101aa565b6040518082815260200191505060405180910390f35b6100a36101b0565b005b34156100b057600080fd5b6100c66004808035906020019091905050610254565b604051808273ffffffffffffffffffffffffffffffffffffffff1673ffffffffffffffffffffffffffffffffffffffff16815260200191505060405180910390f35b341561011357600080fd5b61011b610293565b604051808273ffffffffffffffffffffffffffffffffffffffff1673ffffffffffffffffffffffffffffffffffffffff16815260200191505060405180910390f35b341561016857600080fd5b610194600480803573ffffffffffffffffffffffffffffffffffffffff169060200190919050506102b9565b6040518082815260200191505060405180910390f35b60025481565b600360009054906101000a900473ffffffffffffffffffffffffffffffffffffffff1673ffffffffffffffffffffffffffffffffffffffff163373ffffffffffffffffffffffffffffffffffffffff1614151561020c57600080fd5b60003411151561021b57600080fd5b34600254016002819055507f94a9d0c457db84aeea4026769c963995b5e252fcacb60b03e2095a019d89745260405160405180910390a1565b60018181548110151561026357fe5b90600052602060002090016000915054906101000a900473ffffffffffffffffffffffffffffffffffffffff1681565b600360009054906101000a900473ffffffffffffffffffffffffffffffffffffffff1681565b600060205280600052604060002060009150905054815600a165627a7a72305820870697581c51ffeed26f1ba7e193d97f3f3faf3b9bfabefadc44b574f92f5d850029",
  "source": "pragma solidity ^0.4.4;\n\ncontract Ledger {\n\n    // Ledger to track investor investment\n    mapping (address=>uint) public ledger;\n\n    // List of account. This maps to the keys inside the ledger map\n    address[] public ledgerAccounts;\n\n    // Intial Balance. Deposited by owner of the contract. This can be changed.\n    // Unit Type: Wei\n    uint256 public initialBalance;\n\n    // Owner of this Ledger\n    address public owner; \n\n    /**\n        Modifier\n     */\n\n    // Modifier to validate that a function can only be executed by the owner\n    modifier onlyOwner {\n        require(msg.sender == owner);\n        _;\n    }\n\n    /**\n        Events\n     */\n\n    // Trigger when initial balance changed\n    event InitialBalanceChanged();\n\n    /**\n        Constructor\n     */\n    function Ledger() public {\n        owner = msg.sender;\n    }\n\n    /**\n        Owner Only\n     */\n\n     // Use this to increase the inital balance.\n     function increaseInitialBalance() public payable onlyOwner {\n         require(msg.value > 0);\n         initialBalance = initialBalance + msg.value;\n         InitialBalanceChanged();\n     }\n\n}",
  "sourcePath": "/Users/admin/Documents/Dev/crypto/Pulsar/contracts/Ledger.sol",
  "compiler": {
    "name": "solc",
    "version": "0.4.18+commit.9cf6e910.Emscripten.clang"
  },
  "schemaVersion": "1.0.1",
  "updatedAt": "2017-11-21T07:04:31.163Z"
}